{
  "contractName": "DNSContract",
  "abi": [
    {
      "inputs": [],
      "payable": false,
      "stateMutability": "nonpayable",
      "type": "constructor"
    },
    {
      "anonymous": false,
      "inputs": [
        {
          "indexed": false,
          "name": "holder",
          "type": "address"
        },
        {
          "indexed": false,
          "name": "domain",
          "type": "bytes32"
        }
      ],
      "name": "DomainRegistered",
      "type": "event"
    },
    {
      "constant": false,
      "inputs": [
        {
          "name": "_domain",
          "type": "bytes32"
        },
        {
          "name": "_connector",
          "type": "string"
        },
        {
          "name": "_rawHtml",
          "type": "string"
        }
      ],
      "name": "register",
      "outputs": [],
      "payable": true,
      "stateMutability": "payable",
      "type": "function"
    },
    {
      "constant": true,
      "inputs": [
        {
          "name": "_domain",
          "type": "bytes32"
        }
      ],
      "name": "domainHtml",
      "outputs": [
        {
          "name": "",
          "type": "string"
        }
      ],
      "payable": false,
      "stateMutability": "view",
      "type": "function"
    },
    {
      "constant": true,
      "inputs": [
        {
          "name": "_domain",
          "type": "bytes32"
        }
      ],
      "name": "domainConnector",
      "outputs": [
        {
          "name": "",
          "type": "string"
        }
      ],
      "payable": false,
      "stateMutability": "view",
      "type": "function"
    }
  ],
  "bytecode": "0x608060405234801561001057600080fd5b50336000806101000a81548173ffffffffffffffffffffffffffffffffffffffff021916908373ffffffffffffffffffffffffffffffffffffffff160217905550610d54806100606000396000f300608060405260043610610057576000357c0100000000000000000000000000000000000000000000000000000000900463ffffffff16806358fd6aec1461005c578063591b05b11461010c578063d961de44146101b6575b600080fd5b61010a6004803603810190808035600019169060200190929190803590602001908201803590602001908080601f0160208091040260200160405190810160405280939291908181526020018383808284378201915050505050509192919290803590602001908201803590602001908080601f0160208091040260200160405190810160405280939291908181526020018383808284378201915050505050509192919290505050610260565b005b34801561011857600080fd5b5061013b600480360381019080803560001916906020019092919050505061049a565b6040518080602001828103825283818151815260200191508051906020019080838360005b8381101561017b578082015181840152602081019050610160565b50505050905090810190601f1680156101a85780820380516001836020036101000a031916815260200191505b509250505060405180910390f35b3480156101c257600080fd5b506101e5600480360381019080803560001916906020019092919050505061055a565b6040518080602001828103825283818151815260200191508051906020019080838360005b8381101561022557808201518184015260208101905061020a565b50505050905090810190601f1680156102525780820380516001836020036101000a031916815260200191505b509250505060405180910390f35b600061026b8461061a565b905066038d7ea4c680003411801561028b57506000600102816000191614155b80156102eb5750600060016000836000191660001916815260200190815260200160002060000160009054906101000a900473ffffffffffffffffffffffffffffffffffffffff1673ffffffffffffffffffffffffffffffffffffffff16145b15156102f657600080fd5b3360016000836000191660001916815260200190815260200160002060000160006101000a81548173ffffffffffffffffffffffffffffffffffffffff021916908373ffffffffffffffffffffffffffffffffffffffff160217905550826001600083600019166000191681526020019081526020016000206001019080519060200190610385929190610c83565b508160016000836000191660001916815260200190815260200160002060020190805190602001906103b8929190610c83565b506000809054906101000a900473ffffffffffffffffffffffffffffffffffffffff1673ffffffffffffffffffffffffffffffffffffffff166108fc349081150290604051600060405180830381858888f19350505050158015610420573d6000803e3d6000fd5b507fd589a695a0e99c2b037cd9f02edee9db7f29710b3f0a0dda5c45f6bf41bde9093382604051808373ffffffffffffffffffffffffffffffffffffffff1673ffffffffffffffffffffffffffffffffffffffff16815260200182600019166000191681526020019250505060405180910390a150505050565b60606001600083600019166000191681526020019081526020016000206002018054600181600116156101000203166002900480601f01602080910402602001604051908101604052809291908181526020018280546001816001161561010002031660029004801561054e5780601f106105235761010080835404028352916020019161054e565b820191906000526020600020905b81548152906001019060200180831161053157829003601f168201915b50505050509050919050565b60606001600083600019166000191681526020019081526020016000206001018054600181600116156101000203166002900480601f01602080910402602001604051908101604052809291908181526020018280546001816001161561010002031660029004801561060e5780601f106105e35761010080835404028352916020019161060e565b820191906000526020600020905b8154815290600101906020018083116105f157829003601f168201915b50505050509050919050565b60008060008060009150600090505b6020811015610c775760417f010000000000000000000000000000000000000000000000000000000000000002858260208110151561066457fe5b1a7f0100000000000000000000000000000000000000000000000000000000000000027effffffffffffffffffffffffffffffffffffffffffffffffffffffffffffff19161015801561072c5750605a7f01000000000000000000000000000000000000000000000000000000000000000285826020811015156106e457fe5b1a7f0100000000000000000000000000000000000000000000000000000000000000027effffffffffffffffffffffffffffffffffffffffffffffffffffffffffffff191611155b1561081d5760018214156107465760006001029350610c7b565b6008810260ff7f0100000000000000000000000000000000000000000000000000000000000000026020878460208110151561077e57fe5b1a7f0100000000000000000000000000000000000000000000000000000000000000027f01000000000000000000000000000000000000000000000000000000000000009004017f010000000000000000000000000000000000000000000000000000000000000002167effffffffffffffffffffffffffffffffffffffffffffffffffffffffffffff1916600019169060020a900483179250610c6a565b60617f010000000000000000000000000000000000000000000000000000000000000002858260208110151561084f57fe5b1a7f0100000000000000000000000000000000000000000000000000000000000000027effffffffffffffffffffffffffffffffffffffffffffffffffffffffffffff1916101580156109175750607a7f01000000000000000000000000000000000000000000000000000000000000000285826020811015156108cf57fe5b1a7f0100000000000000000000000000000000000000000000000000000000000000027effffffffffffffffffffffffffffffffffffffffffffffffffffffffffffff191611155b806109965750602d7f010000000000000000000000000000000000000000000000000000000000000002858260208110151561094f57fe5b1a7f0100000000000000000000000000000000000000000000000000000000000000027effffffffffffffffffffffffffffffffffffffffffffffffffffffffffffff1916145b80610a97575060307f01000000000000000000000000000000000000000000000000000000000000000285826020811015156109ce57fe5b1a7f0100000000000000000000000000000000000000000000000000000000000000027effffffffffffffffffffffffffffffffffffffffffffffffffffffffffffff191610158015610a96575060397f0100000000000000000000000000000000000000000000000000000000000000028582602081101515610a4e57fe5b1a7f0100000000000000000000000000000000000000000000000000000000000000027effffffffffffffffffffffffffffffffffffffffffffffffffffffffffffff191611155b5b15610b40576001821415610ab15760006001029350610c7b565b6008810260ff7f0100000000000000000000000000000000000000000000000000000000000000028683602081101515610ae757fe5b1a7f010000000000000000000000000000000000000000000000000000000000000002167effffffffffffffffffffffffffffffffffffffffffffffffffffffffffffff1916600019169060020a900483179250610c69565b60207f0100000000000000000000000000000000000000000000000000000000000000028582602081101515610b7257fe5b1a7f0100000000000000000000000000000000000000000000000000000000000000027effffffffffffffffffffffffffffffffffffffffffffffffffffffffffffff19161480610c37575060007f0100000000000000000000000000000000000000000000000000000000000000028582602081101515610bf057fe5b1a7f0100000000000000000000000000000000000000000000000000000000000000027effffffffffffffffffffffffffffffffffffffffffffffffffffffffffffff1916145b15610c5c5760019150600881026000600102600019169060020a900483179250610c68565b60006001029350610c7b565b5b5b8080600101915050610629565b8293505b505050919050565b828054600181600116156101000203166002900490600052602060002090601f016020900481019282601f10610cc457805160ff1916838001178555610cf2565b82800160010185558215610cf2579182015b82811115610cf1578251825591602001919060010190610cd6565b5b509050610cff9190610d03565b5090565b610d2591905b80821115610d21576000816000905550600101610d09565b5090565b905600a165627a7a723058207fd574e3cb4294475d393d6d610f81f0d1cfdd13ec63b84b6ddf813b6c65e2380029",
  "source": "pragma solidity ^0.4.20;\n\n/**\n *\n * @author Fady Aro 01-10-2018\n *\n * DDNS Smart Contract\n *\n * A Decentralized Domain Name Server\n *\n * Giving more meaning for the blockchain\n *\n * Host Unstoppable Domains\n */\n\ncontract usingDNSTools {\n\n    /**\n     * internal domain name validation\n     *\n     * domain name contains only numbers, alphabets and '-' character\n     *\n     * returns 0x0 on failure\n     *\n     * returns lower case domain name on success\n     */\n    function validate(bytes32 name) internal pure returns (bytes32) {\n        bytes32 arr;\n        uint blank = 0;\n        for (uint i = 0; i < 32; i++) {\n            if (name[i] >= 65 && name[i] <= 90) {\n                if (blank == 1)\n                    return 0x0;\n                arr |= bytes32(bytes1(uint(name[i]) + 32) & 0xFF) >> (i * 8);\n            } else if ((name[i] >= 97 && name[i] <= 122)\n            || name[i] == 45\n            || (name[i] >= 48 && name[i] <= 57)) {\n                if (blank == 1)\n                    return 0x0;\n                arr |= bytes32((name[i]) & 0xFF) >> (i * 8);\n            } else if (name[i] == 32 || name[i] == 0x0) {\n                blank = 1;\n                arr |= bytes32(0x0 & 0xFF) >> (i * 8);\n            } else {\n                return 0x0;\n            }\n        }\n        return arr;\n    }\n}\n\ncontract DNSContract is usingDNSTools {\n\n    event DomainRegistered(address holder, bytes32 domain);\n\n    struct record {\n\n        address holder;\n\n        string connector;\n\n        string rawHtml;\n\n    }\n\n    uint constant REGISTRATION_PRICE_WEI = 10 ** 15;\n\n    address owner;\n\n    mapping(bytes32 => record) sites;\n\n    constructor() public {\n        owner = msg.sender;\n    }\n\n    function register(bytes32 _domain, string _connector, string _rawHtml) public payable {\n\n        bytes32 _site = validate(_domain);\n\n        require\n        (\n            msg.value > REGISTRATION_PRICE_WEI\n            && _site != 0x00\n            && sites[_site].holder == 0x00\n        );\n\n        sites[_site].holder = msg.sender;\n        sites[_site].connector = _connector;\n        sites[_site].rawHtml = _rawHtml;\n\n        owner.transfer(msg.value);\n\n        emit DomainRegistered(msg.sender, _site);\n    }\n\n    function domainHtml(bytes32 _domain) public view returns (string) {\n        return sites[_domain].rawHtml;\n    }\n\n    function domainConnector(bytes32 _domain) public view returns (string) {\n        return sites[_domain].connector;\n    }\n}",
  "sourcePath": "/Users/hassanjawhar/Desktop/Workspace/dns/contracts/DNSContract.sol",
  "compiler": {
    "name": "solc",
    "version": "0.4.24+commit.e67f0147.Emscripten.clang"
  },
  "schemaVersion": "2.0.1",
  "updatedAt": "2018-10-03T07:02:57.567Z"
}